{
  "contractName": "Ehealth",
  "abi": [
    {
      "constant": true,
      "inputs": [],
      "name": "patient",
      "outputs": [
        {
          "name": "",
          "type": "address"
        }
      ],
      "payable": false,
      "stateMutability": "view",
      "type": "function"
    },
    {
      "inputs": [
        {
          "name": "_name",
          "type": "string"
        },
        {
          "name": "_gender",
          "type": "string"
        },
        {
          "name": "_age",
          "type": "uint256"
        }
      ],
      "payable": false,
      "stateMutability": "nonpayable",
      "type": "constructor"
    },
    {
      "anonymous": false,
      "inputs": [
        {
          "indexed": false,
          "name": "_a",
          "type": "address"
        }
      ],
      "name": "makeChange",
      "type": "event"
    },
    {
      "constant": false,
      "inputs": [
        {
          "name": "_checker",
          "type": "address"
        }
      ],
      "name": "authens",
      "outputs": [],
      "payable": false,
      "stateMutability": "nonpayable",
      "type": "function"
    },
    {
      "constant": true,
      "inputs": [],
      "name": "getRec",
      "outputs": [
        {
          "name": "",
          "type": "string"
        }
      ],
      "payable": false,
      "stateMutability": "view",
      "type": "function"
    },
    {
      "constant": false,
      "inputs": [
        {
          "name": "_rec",
          "type": "string"
        }
      ],
      "name": "setRec",
      "outputs": [],
      "payable": false,
      "stateMutability": "nonpayable",
      "type": "function"
    }
  ],
  "bytecode": "0x608060405234801561001057600080fd5b5060405161094f38038061094f8339810180604052606081101561003357600080fd5b81019080805164010000000081111561004b57600080fd5b8281019050602081018481111561006157600080fd5b815185600182028301116401000000008211171561007e57600080fd5b5050929190602001805164010000000081111561009a57600080fd5b828101905060208101848111156100b057600080fd5b81518560018202830111640100000000821117156100cd57600080fd5b50509291906020018051906020019092919050505082600190805190602001906100f89291906101a1565b50816003908051906020019061010f9291906101a1565b508060068190555033600460006101000a81548173ffffffffffffffffffffffffffffffffffffffff021916908373ffffffffffffffffffffffffffffffffffffffff16021790555033600560006101000a81548173ffffffffffffffffffffffffffffffffffffffff021916908373ffffffffffffffffffffffffffffffffffffffff160217905550505050610246565b828054600181600116156101000203166002900490600052602060002090601f016020900481019282601f106101e257805160ff1916838001178555610210565b82800160010185558215610210579182015b8281111561020f5782518255916020019190600101906101f4565b5b50905061021d9190610221565b5090565b61024391905b8082111561023f576000816000905550600101610227565b5090565b90565b6106fa806102556000396000f3fe608060405260043610610062576000357c0100000000000000000000000000000000000000000000000000000000900463ffffffff1680637aea15de1461006757806396c142b6146100b8578063bd96bd2014610180578063db02f1ea146101d7575b600080fd5b34801561007357600080fd5b506100b66004803603602081101561008a57600080fd5b81019080803573ffffffffffffffffffffffffffffffffffffffff169060200190929190505050610267565b005b3480156100c457600080fd5b5061017e600480360360208110156100db57600080fd5b81019080803590602001906401000000008111156100f857600080fd5b82018360208201111561010a57600080fd5b8035906020019184600183028401116401000000008311171561012c57600080fd5b91908080601f016020809104026020016040519081016040528093929190818152602001838380828437600081840152601f19601f8201169050808301925050505050505091929192905050506102ab565b005b34801561018c57600080fd5b50610195610445565b604051808273ffffffffffffffffffffffffffffffffffffffff1673ffffffffffffffffffffffffffffffffffffffff16815260200191505060405180910390f35b3480156101e357600080fd5b506101ec61046a565b6040518080602001828103825283818151815260200191508051906020019080838360005b8381101561022c578082015181840152602081019050610211565b50505050905090810190601f1680156102595780820380516001836020036101000a031916815260200191505b509250505060405180910390f35b80600560006101000a81548173ffffffffffffffffffffffffffffffffffffffff021916908373ffffffffffffffffffffffffffffffffffffffff16021790555050565b600460009054906101000a900473ffffffffffffffffffffffffffffffffffffffff1673ffffffffffffffffffffffffffffffffffffffff163373ffffffffffffffffffffffffffffffffffffffff1614806103545750600560009054906101000a900473ffffffffffffffffffffffffffffffffffffffff1673ffffffffffffffffffffffffffffffffffffffff163373ffffffffffffffffffffffffffffffffffffffff16145b15156103c8576040517f08c379a00000000000000000000000000000000000000000000000000000000081526004018080602001828103825260208152602001807f4f6e6c79206174682d706572736f6e2063616e20646f2074686973206f70732e81525060200191505060405180910390fd5b80600290805190602001906103de929190610629565b507f1c5c01d25862c15354d25454df5e17517eb4b9328fc0d52846b007332ef38cc833604051808273ffffffffffffffffffffffffffffffffffffffff1673ffffffffffffffffffffffffffffffffffffffff16815260200191505060405180910390a150565b6000809054906101000a900473ffffffffffffffffffffffffffffffffffffffff1681565b6060600460009054906101000a900473ffffffffffffffffffffffffffffffffffffffff1673ffffffffffffffffffffffffffffffffffffffff163373ffffffffffffffffffffffffffffffffffffffff1614806105155750600560009054906101000a900473ffffffffffffffffffffffffffffffffffffffff1673ffffffffffffffffffffffffffffffffffffffff163373ffffffffffffffffffffffffffffffffffffffff16145b1515610589576040517f08c379a00000000000000000000000000000000000000000000000000000000081526004018080602001828103825260208152602001807f4f6e6c79206174682d706572736f6e2063616e20646f2074686973206f70732e81525060200191505060405180910390fd5b60028054600181600116156101000203166002900480601f01602080910402602001604051908101604052809291908181526020018280546001816001161561010002031660029004801561061f5780601f106105f45761010080835404028352916020019161061f565b820191906000526020600020905b81548152906001019060200180831161060257829003601f168201915b5050505050905090565b828054600181600116156101000203166002900490600052602060002090601f016020900481019282601f1061066a57805160ff1916838001178555610698565b82800160010185558215610698579182015b8281111561069757825182559160200191906001019061067c565b5b5090506106a591906106a9565b5090565b6106cb91905b808211156106c75760008160009055506001016106af565b5090565b9056fea165627a7a723058202f930ecbf8d4adab57fd362ddb88401c1a20e96b4fde19d4ef94f199f34b3f740029",
  "source": "pragma solidity ^0.5.0;\n\ncontract Ehealth {\n    address payable public patient;\n    //address payable public hospital;\n    \n    string name;\n    string record;\n    string gender;\n    address myaddress;\n    address checker;\n    uint age;\n    \n    \n    constructor(string memory _name, string memory _gender, uint _age) public {\n        name = _name;\n        gender = _gender;\n        age = _age;\n        myaddress  = msg.sender;\n        checker = msg.sender;\n    }\n    \n    modifier check() {\n        require(\n            msg.sender == myaddress || msg.sender == checker,\n            \"Only ath-person can do this ops.\"\n            );\n        _;\n    }\n    \n    event makeChange(address _a);\n    \n    function authens(address _checker) public{\n        checker = _checker;\n    }\n    \n    function getRec() public view check returns(string memory){\n        return record;\n    }\n    \n    function setRec(string memory _rec) public check{\n        record = _rec;\n        emit makeChange(msg.sender);// who changed it.\n    }\n    \n    \n}\n\n",
  "sourcePath": "/Users/lianghanbang/Desktop/trr/contracts/PatientRec.sol",
  "compiler": {
    "name": "solc",
    "version": "0.5.0+commit.1d4f565a.Emscripten.clang"
  },
  "schemaVersion": "3.0.2",
  "updatedAt": "2019-04-03T07:25:47.978Z",
  "devdoc": {
    "methods": {}
  },
  "userdoc": {
    "methods": {}
  }
}